:0600000002004B020BA6FA
:03000B00020E3AA8
:03001300020BF9E4
:01001B0032B2
:03002300020B5A73
:01002B0032A2
:01003300329A
:03003B00020C4C68
:03004300020B1B92
:03004600020CA009
:02004900E4735E
:0D004B0075817F120CABE582600302004658
:100058007913E94400601B7A0190134878B775A0BA
:1000680000E493F2A308B8000205A0D9F4DAF27507
:02007800A0FFE7
:06007A00E478FFF6D8FD5A
:100080007800E84400600A799475A000E4F309D888
:10009000FC7823E84400600C7901900094E4F0A31C
:0400A000D8FCD9FAB5
:1000A4007522A075230C75242075250E75260F75F1
:1000B400271075281175291F752A1E752B0B752C91
:1000C40021752D2F752E2A752F2D753037753138E2
:1000D40075323975332B7534347535357536367557
:1000E4003731753832753933753AB0753B30753CF4
:1000F4002E753D2F753E2A753F2D754071754177DC
:1001040075426575436675446175457375466475D6
:100114004731754832754933754A20754B30754CF3
:100124002E754D00754E00754F00755000755100C9
:100134007552007553007554007555007556007559
:100144005700755800755900755A00755B00755C49
:1001540000755D00755E00755F0075600075610077
:1001640075620075630075640075650075660075D9
:100174006700756800756900756A00756B00756CB9
:1001840000756D00756E00756F00757000757101F6
:03019400751600DD
:0E0197007808E4F608F608F608F6780C76000C
:0201A500C20393
:0301A7000200460D
:1001AA0012037D9000947401F0758222120CAF90B4
:1001BA000095E571F0758222020DC60201C8900011
:1001CA0032E4F5F0120EF7E4F572F573C3E57294B2
:1001DA0005E573648094804003020379E572242460
:1001EA00F987059000947401F08D82C001120CAF5A
:1001FA00D0018705900095E4F08D82120DC6740235
:10020A00B57208E4B5730474018001E4FD7404B5A1
:10021A007208E4B5730474018001E4FC7A057B007A
:10022A00C3EA9409EB64809480400302035CEA24E5
:10023A0024F987079000947402F08F82C005C004E5
:10024A00C003C002C001120CAFD001E56F245EF8F2
:10025A008782C000120D76AF82D000D002D003D0C0
:10026A0004D005EFB401009200E433F6E56F244DA3
:10027A00F98707E56F245EF88606EFB506030203E1
:10028A001EA706E57245737040BA053DBB003AE504
:10029A0071B40100E433F57170057570108003754F
:1002AA007000900095E571F0758222C005C004C007
:1002BA0003C002120DC69000C8E4F5F0120EF7D082
:1002CA0002D003D004D005804BE56F244DF9E760D6
:1002DA0027E570256F242DF98782C005C004C00365
:1002EA00C00212040C900014E4F5F0120EF7D002CA
:1002FA00D003D004D005801CE570256F242DF98722
:10030A0082C005C004C003C0021204CAD002D003CE
:10031A00D004D005E56FFF04F56FED600CBA08094B
:10032A00BB0006E56FFF14F56FEC600CBA0609BB5B
:10033A000006E56FFF14F56FE5724573700CBA0598
:10034A0009BB0006E56FFF14F56F0ABA00010B023C
:10035A00022AE5722424F987079000957401F08F28
:10036A0082120DC60572E4B5720205730201D675D2
:10037A006F0022120AD7120B01120AF075DD0075FE
:10038A00D30075D5002275D30074FC55D24402F50A
:10039A00D29000B7E4F022A2DE227E007F00900015
:1003AA00B7E060200EBE00010F900005C007C0062E
:1003BA00120FA8D006D007C3EE9450EF94C340DEC4
:1003CA00758200227F00BF080050278F057E0074C7
:1003DA00402DFDE43EFEED240AFDEE3400FEEF243E
:1003EA00B8F582E43400F583E0FC8D828E83F00F49
:1003FA0080D475D3089000B77401F053D2FC75828B
:10040A000122AF82BF880040088F06EE2478FE8062
:10041A0042BF800040239000B8E0FD8F04EC2480A6
:10042A00F5F005F07401800225E0D5F0FBFC4205E9
:10043A009000B8EDF07E00801AEF90116093FE7084
:10044A0003F58222EE30E70B9000B8E04402FFF099
:10045A0053067F9000BAE0FFB50602805C9000BBAD
:10046A00E0FFB5060280529000BCE0FFB5060280AC
:10047A00489000BDE0FFB50602803E9000BEE0FF56
:10048A00B5060280349000BFE0FFB50602802A7FDD
:10049A00027D02ED24B8FBE43400FC8B828C83E0FD
:1004AA0070088B828C83EEF080080D8D07BD0800E2
:1004BA0040E1BF0804758200221203A4758201225A
:1004CA00AF82BF880040088F06EE2478FE8043BFC3
:1004DA00800040249000B8E0FD8F04EC2480F5F001
:1004EA0005F07401800225E0D5F0FBF4FC5205907A
:1004FA0000B8EDF07E00801AEF90116093FE700351
:10050A00F58222EE30E70B9000B8E054FDFFF0537D
:10051A00067F7F02EE6016EF24B8FCE43400FD8CFF
:10052A00828D83E0B506068C828D83E4F00FBF08C6
:10053A000040E11203A4758201227F00BF08005027
:10054A000FEF24B8F582E43400F583E4F00F80EC71
:10055A000203A4AF82C00712040CAE82D0078F82B6
:10056A00C0061204CAD0068E822290000AE0F582E2
:01057A00225E
:10057B00AFDBBF08028003020971900007E0FE7F2A
:10058B0000900006E0FD7C004FF510EC4EF5117F5E
:10059B0000900001E0F5128F16900000E0FE546011
:1005AB006027900000E0FE5306607D00BE2005BD75
:1005BB000002800BBE400DBD000A7FFF0209737F56
:1005CB00FF0209737FFF020973E51224F450030243
:1005DB00096DE512240B83F582E512241083F58354
:1005EB00E4734F7D6D3D6D4C056D59747373090745
:1005FB0009080907060907070909900003E0FEBE71
:10060B0001028013BE02028023BE03028033BE228E
:10061B00030206BE0206DC7514E07515119011F28B
:10062B00E493FD740193FE8D070206DE7514F475D9
:10063B001511901262E493FD740193FE8D0702066F
:10064B00DE900002E0701475146475151290126838
:10065B00E493FD740193FE8D078078900002E0FE19
:10066B00BE01147514987515129012A6E493FD74BF
:10067B000193FE8D07805C900002E0FEBE021475B4
:10068B001480751512901296E493FD740193FE8DF0
:10069B00078040900002E0FEBE031475146A7515C6
:1006AB001290127EE493FD740193FE8D0780247FDC
:1006BB00FF8020900002E0701475141F75151290C6
:1006CB00121DE493FD740193FE8D0780067FFF805E
:1006DB00027FFFBFFF030209738F057E00C3ED95F9
:1006EB0010EE951150048D108E11AD10AE11C3ED9F
:1006FB009408EE9400920140067B087C008004ABCA
:10070B0010AC118B077C00C3EC9F50198C027B0043
:10071B00EC2514F582E43515F583E493F98A828B85
:10072B0083F00C80E28F037C00EDC39BFDEE9CFEFF
:10073B008D108E11EF2514F514E43515F5150209FE
:10074B0073900002E0FE8E10751100020973900089
:10075B0000E513F0AD10AE11C3ED9401EE94005013
:10076B00030209737F01020973900002E0F5130283
:10077B000973900000E0541F702F900003E0FD7E82
:10078B0000900002E0FC7B004206EB4205BE011428
:10079B00BD00119011FBE493FE30E5030209737F5A
:1007AB00FF0209737FFF020973900000E0FE5306FE
:1007BB001F7D00BE0277BD0074900004E0FEBE01F9
:1007CB0002805FBE02028049BE03028033BE040278
:1007DB00801DBE81028040BE8202802ABE830280C1
:1007EB0014BE844474BC55DE4402F5DE0209735317
:1007FB00DE7302097374BC55D64402F5D602097335
:10080B0053D67302097374BC55D44402F5D4020950
:10081B007353D47302097374BC55D24402F5D202DC
:10082B00097353D2730209737FFF0209737FFF02AF
:10083B000973900000E0541F702F900003E0FD7EC1
:10084B0000900002E0FC7B004206EB4205BE011467
:10085B00BD00119011FBE493FE30E5030209737F99
:10086B00FF0209737FFF020973900000E0FE53063D
:10087B001F7D00BE0205BD0002800302094B9000E4
:10088B0003E0FD7E00900002E0FC7B004206EB42A1
:10089B0005EE4D6003020947900005E0FD7E0090D8
:1008AB000004E0FC7B004206EB4205BE0106BD00E6
:1008BB000302093BBE0205BD00028060BE0305BDFD
:1008CB0000028044BE0405BD00028028BE8105BD28
:1008DB0000028052BE8205BD00028036BE8305BD7C
:1008EB000002801ABE8451BD004E74BF55DE440316
:1008FB00F5DE8074747F55DE440CF5DE806A74BFC0
:10090B0055D64403F5D68060747F55D6440CF5D686
:10091B00805674BF55D44403F5D4804C747F55D4A2
:10092B00440CF5D4804274BF55D24403F5D28038C1
:10093B00747F55D2440CF5D27FFF802C7FFF80282B
:10094B007FFF8024900000E4F0900001F0AD10AE2A
:10095B0011C3ED9402EE940040047F02800AAF10A5
:10096B0080067FFF80027FFFBFFF077512FF75DCDC
:10097B00CF22EF24F740068FDD75DCC02275DD003A
:10098B0075DCC0227405B5120280617406B5126A5B
:10099B00AE10AF11C3EE9408EF9400920240067CA8
:1009AB00087D008004AC10AD117D00C3ED9C501987
:1009BB008D027B00ED2514F582E43515F583E49368
:1009CB00F98A828B83F00D80E28C037D00EEC39B52
:1009DB00FEEF9DFF8E108F11EC2514F514E43515E9
:1009EB00F5158CDDAEDC6306408EDC22E5E354802E
:1009FB00FFE5104FF5E375DC022275DD0075DC02B7
:100A0B002275DD0043DC022220D903020AB8E5D9A6
:100A1B00540FFFADD95305307E00BD0005BE00025B
:100A2B00801BBD1005BE00028035BD2005BE000237
:100A3B008042BD3005BE00028059020AB6EF24FB8E
:100A4B005003020AB6EF2F900A56738008800B8072
:100A5B005A80588056120A0C80511203A1804CEF19
:100A6B0024FB4047EF2F900A7573803F803D803BFE
:100A7B0080398037EF24FB4032EF2F900A8A738046
:100A8B0008800B80268024802212098F801D120380
:100A9B00908018EF24FB4013EF2F900AA973800866
:100AAB00800980078005800312057BC2D930D80FDF
:100ABB0075DC0275D21275E300C2DAC2D9C2D81046
:100ACB00DA0122E5DA20E20375D8FF2275E2005342
:100ADB00E27F43E22975E30053E2BF53D1FB75D1AB
:100AEB008043D1012243E10443E10243E10143D8B6
:100AFB001FD2EAD2AF227E0A7F008EEE8FEF75D225
:100B0B00127E007F008EEC8FED75EAC075DC022241
:100B1B00C021C0E0C0F0C082C083C007C006C005C2
:100B2B00C004C003C002C001C000C0D075D0001209
:100B3B000A13D0D0D000D001D002D003D004D005FE
:100B4B00D006D007D083D082D0F0D0E0D02132C0F5
:100B5B0021C0E0C0F0C082C083C007C006C005C082
:100B6B0004C003C002C001C000C0D075D0003098D3
:100B7B0005121063C298309905121099C299D0D002
:100B8B00D000D001D002D003D004D005D006D007BE
:100B9B00D083D082D0F0D0E0D02132C021C0E0C0D1
:100BAB00F0C082C083C007C006C005C004C003C02C
:100BBB0002C001C000C0D075D0009000C2E0FEA3FF
:100BCB00E0FFC007C0068E828F83120049D006D08B
:100BDB0007D0D0D000D001D002D003D004D005D0A4
:100BEB0006D007D083D082D0F0D0E0D02132C02104
:100BFB00C0E0C0F0C082C083C007C006C005C004FF
:100C0B00C003C002C001C000C0D075D0009000C4AA
:100C1B00E0FEA3E0FFC007C0068E828F831200495F
:100C2B00D006D007D0D0D000D001D002D003D00452
:100C3B00D005D006D007D083D082D0F0D0E0D02121
:100C4B0032C021C0E0C0F0C082C083C007C006C064
:100C5B0005C004C003C002C001C000C0D075D000E5
:100C6B009000C0E0FEA3E04E600E9000C0E0F8A341
:100C7B00E0F5838882120049D0D0D000D001D00299
:100C8B00D003D004D005D006D007D083D082D0F0CB
:100C9B00D0E0D02132120FC01201AA1201C580FB85
:040CAB00758200222C
:100CAF00E582FF9012F893FEEF9012D093FF700140
:100CBF0022900094E0FD701BBF0209EEF4FC5292EB
:100CCF00EC529322BF0402800122EEF4FC5296EC08
:100CDF00529722BD0214BF0207EE4292EE429322B8
:100CEF00BF0439EE4296EE429722BD0116BF0208AD
:100CFF00EEF45292EE429322BF0421EEF45296EE9E
:100D0F00429722BD0316BF0208EE4292EEF45293B1
:100D1F0022BF0408EE4296EEF4FE529722AF82BF36
:100D2F000102800FBF02028013BF03028017BF04AE
:100D3F00358023E5C620E22E539DFB22E5C620E336
:100D4F0025539DF722AEC65306047F00BE0117BF81
:100D5F000014539DFB22AEC65306087F00BE01064A
:100D6F00BF0003539DF722E582FF9012A893FEEF79
:100D7F009012F893FDEF9012D093FF7003F582223B
:100D8F00EE600D8E82C007C005120D2CD005D00766
:100D9F007E00BF0202800ABF03028009BF040C80DD
:100DAF0008AE908006AEA08002AEB0ED5E60047516
:100DBF0082012275820022E582FF9012A893FEEF36
:100DCF009012F893FDEF9012D093FFEE600D8E828C
:100DDF00C007C005120D2CD005D007A2AFE433FE1B
:100DEF00C2AFBF0202800ABF03028017BF04368062
:100DFF0024900095E07007EDF4FF52908027ED42AC
:100E0F00908022900095E07007EDF4FF52A08015BE
:100E1F00ED42A08010900095E07007EDF4FF52B006
:0B0E2F008003ED42B0EE6002D2AF2263
:100E3A00C0D075D00808B8000D09B900090ABA006F
:100E4A00050BBB00010CD0D032A2AFC2AFA808A9D3
:100E5A0009AA0AAB0BAC8A8588F092AF30F51274F6
:100E6A00012C600D08B8000909B900050ABA000189
:100E7A000BC3EC9406FCECC313FC75F07DE8A4F8F4
:100E8A00ADF075F07DE9A42DF9E435F0FD75F07D3E
:100E9A00EAA42DFAE435F0FD75F07DEBA42DFB7D77
:100EAA0000EC28F582E93DF583EA3DF5F0EB3D22B9
:100EBA00A2AFC2AFA808A909AA0AAB0BAC0C92AFA1
:100ECA0075F020E8A4A8F075F020E9A428F582A816
:100EDA00F075F020EAA428F583A8F075F020EBA4B9
:100EEA0028F9A8F075F020ECA42889F022858274EC
:100EFA0085837585F076F577120E5385827885831A
:100F0A007985F07AF57BE574457545764577700104
:100F1A0022A874A975AA76AB7785787C85797D85B0
:100F2A007A7E857B7FE8494A4B60DBC003C002C0FA
:100F3A0001C000120E53AC82AD83AEF0FFD000D0D8
:100F4A0001D002D003ECC3957CFCED957DFDEE95B6
:100F5A007EFEEF957FFFC3EC94E8ED9403EE9400D8
:100F6A00EF940040A118B8FF0919B9FF051ABAFF92
:100F7A00011B887489758A768B7774E8257CF57CE1
:100F8A007403357DF57DE4357EF57EE4357FF57FA6
:100F9A00857C78857D79857E7A857F7B8087AE8220
:100FAA00AF83EE4F600F05A105A105A105A11EBEE5
:100FBA00FF011F80ED2275A15575A1AA74F855B9D4
:100FCA004406F5B975A100901388120FA8759E5DA5
:100FDA00759D0074F055894402F58953C9EF758CE3
:0A0FEA0006C28DD2A9D28CD2AF222C
:100FF40022AF82BF02005036EF75F002A424C2F57E
:1010040082740035F0F583E517F0E518A3F0BF000E
:10101400028005BF0118800B900096E024FF92889F
:10102400D2A822900096E0FF24FF928AD2AA22AF8F
:1010340082BF02005028BF00028005BF010880045F
:10104400C2A88002C2AAEF75F002A424C2FE7400F2
:0F10540035F0FF8E828F8374F4F0740FA3F022B7
:101063009000C6E0FF7E008F828E83A37517108EDB
:101073001812112AAE829000C7E0FFEEB5070122D5
:101083009000C6E02497F582E43400F583E599F0F7
:101093009000C6EEF0223003409000C8E0FF9000BD
:1010A300C9E0FEEFB50605A203C203229000C9E022
:1010B30024A7F582E43400F583E0F5999000C9E0B4
:1010C300FF7E008F828E83A37517108E1812112A4C
:0A10D300AE82AF839000C9EEF02258
:1010DD00E517451860467A01E51725E0F517E5187F
:1010ED00334012F518E5829517E583951840030AEC
:1010FD0080E6C3E51813F518E51713F517C3E58258
:10110D009517F5F0E58395184005F58385F082C3B5
:10111D00E51813F518E51713F517DAE122C2D5E531
:10112D008330E70DD2D5E4C39582F582E49583F53E
:10113D0083E51830E70BE4C39517F517E49518F51B
:10114D00181210DD30D50BE4C39582F582E495833A
:03115D00F58322F5
:1011600000000000000000002A2B28000000000002
:10117000000000000000000000000000000000006F
:101180002C9EB4A0A1A2A434A6A7A5AE362D3738B4
:10119000271E1F20212223242526B333B62EB7B8BD
:1011A0009F8485868788898A8B8C8D8E8F9091927B
:1011B000939495969798999A9B9C9D2F3130A3ADC7
:1011C000350405060708090A0B0C0D0E0F10111245
:1011D000131415161718191A1B1C1DAFB1B0B50042
:1011E000120110010000000809125DC50001010292
:1011F00003011200090229000101008064090400B2
:10120000000203010100092110012101224300070E
:1012100005010308000A0705810308000A430005C9
:10122000010906A101050719E029E7150025019527
:1012300008750181029501750881039506750815E9
:101240000025FF0507190029E78100050819012974
:10125000051500250195057501910295017503910C
:1012600003C02900040309040400140343004800D8
:1012700035003500780020006B0062006400140027
:1012800016034300480035003500780064007500FF
:1012900069006E006F0016000E03440065007100C7
:0812A00069006E0067000E00FA
:1012A8000000000000000000000000000000000135
:1012B800000000000000000000000000000003041F
:1012C800000002000000000001010101010101010C
:1012D80000000202020202020202000003030303EA
:1012E80003030303000004040404040404040000CA
:1012F80001020408102040800000010204081020A8
:101308004080000001020408102040800000010213
:101318000408102040800000FFFFFFFFFFFFFFFFD1
:10132800FFFFFF00FFFF0102FFFFFFFFFFFFFFFFBF
:10133800FFFFFFFFFFFFFFFF03FFFFFFFFFFFFFFB1
:091348000000000000000000009C
:0213510000009A
:04135300F40FF40F90
:041357000000000092
:00000001FF
